:100000000C9434030C948B060C9451030C94510300
:100010000C9451030C9451030C9451030C94510310
:100020000C9451030C9451030C9451030C948106CD
:100030000C9451030C9451030C9451030C945103F0
:100040000C9450060C9451030C9451030C945103DE
:100050000C9451030C9451030C9451030C945103D0
:100060000C9451030C945103FFFFFFFFFFFFFFFFB0
:10007000FFFFFFFFFFFFFFFFFFFFFFFFFFFFFFFF90
:10008000FFFFFFFFFFFFFFFFFFFFFFFFFFFFFFFF80
:10009000FFFFFFFFFFFFFFFFFFFFFFFFFFFFFFFF70
:1000A000FFFFFFFFFFFFFFFFFFFFFFFFFFFFFFFF60
:1000B000FFFFFFFFFFFFFFFFFFFFFFFFFFFFFFFF50
:1000C000FFFFFFFFFFFFFFFFFFFFFFFFFFFFFFFF40
:1000D000FFFFFFFFFFFFFFFFFFFFFFFFFFFFFFFF30
:1000E000FFFFFFFFFFFFFFFFFFFFFFFFFFFFFFFF20
:1000F000FFFFFFFFFFFFFFFFFFFFFFFFFFFFFFFF10
:10010000FFFFFFFFFFFFFFFFFFFFFFFFFFFFFFFFFF
:10011000FFFFFFFFFFFFFFFFFFFFFFFFFFFFFFFFEF
:10012000FFFFFFFFFFFFFFFFFFFFFFFFFFFFFFFFDF
:1001300041FFFFFFFFF8FFF8FFFFD701D701D7FF0F
:10014000B7AB01ABDBFFF9B9DFEF373B936D55BBC5
:100150005FFFFFFAFCFFFFFFC7BB7DFFFFFF7DBB1B
:10016000C7FFFFFFD7EF83EFD7FFEFEF83EFEFFF7F
:100170005F9FFFFFFFFFEFEFEFEFEFFFFFFF7FFF5F
:10018000FFFFBFDFEFF7FBFF835D6D7583FFFF7B35
:10019000017FFFFF7B3D5D6D73FFBD7D75699DFF39
:1001A000CFD7DB01DFFFB17575758DFF876B6D6D87
:1001B0009FFFFD1DEDF5F9FF936D6D6D93FFF36DE1
:1001C0006DADC3FFFFFFBBFFFFFFFF5393FFFFFFBB
:1001D000EFD7BB7DFFFFD7D7D7D7D7FF7DBBD7EFF3
:1001E000FFFFFBFD5DEDF3FF9B6D0D7D83FF03DDE9
:1001F000DDDD03FF016D6D6D93FF837D7D7DBBFFB5
:10020000017D7D7D83FF016D6D6D7DFF01EDEDED68
:10021000FDFF837D6D6D8BFF01EFEFEF01FFFF7D34
:10022000017DFFFFBF7F7D81FDFF01EFD7BB7DFF1C
:10023000017F7F7F7FFF01FBE7FB01FF01F7EFDF1E
:1002400001FF837D7D7D83FF01EDEDEDF3FF837D78
:100250005DBD43FF01EDCDAD73FF736D6D6D9DFF12
:10026000FDFD01FDFDFF817F7F7F81FFC1BF7FBF5E
:10027000C1FF817F8F7F81FF39D7EFD739FFF1EF42
:100280001FEFF1FF3D5D6D7579FF017D7DFFFFFF84
:10029000FDFBF7EFDFBF7D7D01FFFFFFF7FBFDFB00
:1002A000F7FF7F7F7F7F7FFFFFFDFBF7FFFFBF57DC
:1002B00057570FFF016F77778FFF8F777777BFFFE4
:1002C0008F77776F01FF8F575757CFFFEF03EDFD04
:1002D000FBFFE75B5B5B83FF01EFF7F70FFFFF7748
:1002E000057FFFFFBF7F7785FFFF01DFAF77FFFF50
:1002F000FF7D017FFFFF07F7CFF707FF07EFF7F756
:100300000FFF8F7777778FFF07D7D7D7EFFFEFD71D
:10031000D7CF07FF07EFF7F7EFFF6F575757B7FF35
:10032000F781777FBFFF877F7FBF07FFC7BF7FBF93
:10033000C7FF877F9F7F87FF77AFDFAF77FFE75FDD
:100340005F5F87FF7737576777FFEF937DFFFFFF8B
:10035000FFFF00FFFFFF7D93EFFFFFFFEFEFABC756
:10036000EFFFEFC7ABEFEFFFFFEFEFEFEFEFFFFFB9
:10037000FFFFFFFFFFFFFFFFFFFFFFFFFFFFFFFF8D
:10038000FFFFFFFFFFFFFFFFFFFFFFFFFFFFFFFF7D
:10039000FFFFFFFFFFFFFFFFFFFFFFFFFFFFFFFF6D
:1003A000FFFFFFFFFFFFFFFFFFFFFFFFFFFFFFFF5D
:1003B000FFFFFFFFFFFFFFFFFFFFFFFFFFFFFFFF4D
:1003C000FFFFFFFFFFFFFFFFFFFFFFFFFFFFFFFF3D
:1003D000FFFFFFFFFFFFFFFFFFFFFFFFFFFFFFFF2D
:1003E000FFFFFFFFFFFFFFFFFFFFFFFFFFFFFFFF1D
:1003F000FFFFFFFFFFFFFFFFFFFFFFFFFFFFFFFF0D
:10040000FFFFFFFFFFFFFFFFFFFFFFFFFFFFFFFFFC
:10041000FFFFFFFFFFFFFFFFFFFFFFFFFFFFFFFFEC
:10042000FFFFFFFFFFFFFFFFFFFFFFFFFFFFFFFFDC
:10043000FFFFFFFFFFFFFFFFFFFFFFFFFFFFFFFFCC
:10044000FFFFFFFFFFFFFFFFFFFFFFFFFFFFFFFFBC
:10045000FFFFFFFFFFFFFFFFFFFFFFFFFFFFFFFFAC
:10046000FFFFFFFFFFFFFFFFFFFFFFFFFFFFFFFF9C
:10047000FFFFFFFFFFFFFFFFFFFFFFFFFFFFFFFF8C
:10048000FFFFFFFFFFFFFFFFFFFFFFFFFFFFFFFF7C
:10049000FFFFFFFFFFFFFFFFFFFFFFFFFFFFFFFF6C
:1004A000FFFFFFFFFFFFFFFFFFFFFFFFFFFFFFFF5C
:1004B000FFFFFFFFFFFFFFFFFFFFFFFFFFFFFFFF4C
:1004C000FFFFFFFFFFFFFFFFFFFFFFFFFFFFFFFF3C
:1004D000FFFFFFFFFFFFFFFFFFFFFFFFFFFFFFFF2C
:1004E000FFFFFFFFFFFFFFFFFFFFFFFFFFFF03DD3A
:1004F000D8DD03FFFFFFFFFFFFFFFFFFFFFFFFFF51
:10050000FFFFFFFFFFFFFFFFFFFFFFFFFFFFFFFFFB
:10051000FFFFFFFFFFFFFFFFFFFFFFFFFFFF016D7B
:10052000686D7DFFFFFFFFFFFFFFFFFFFFFFFFFF86
:10053000FFFFFFFFFFFF770477FFFFFFFFFFFFFFD6
:10054000FFFFFFFFFFFFFFFFFFFFFFFFFFFFFFFFBB
:10055000FFFFFFFFFFFFFFFFFFFF837D787D83FF2E
:10056000FFFFFFFFFFFF87787B7887FF877A7B7A23
:1005700087FFFFFFFFFFFFFFFFFFFFFFFFFFFFFF03
:10058000FFFFFFFF837F7C7F83FF837C7F7C83FF74
:10059000837E7F7E83FFFFFFFFFFFFFFFFFFFFFFE5
:1005A000FFFFFFFFFFFFFFFFFFFFFFFFFFFFBF5743
:1005B00054570FFFFFFFFFFFFFFFFFFFFFFFFFFF8E
:1005C000FFFFFFFFFFFFFFFFFFFFFFFFFFFFFFFF3B
:1005D000FFFFFFFFFFFFFFFFFFFFFFFFFFFF8F5743
:1005E0005457CFFFFFFFFFFFFFFFFFFFFFFFFFFF9E
:1005F000FFFFFFFFFFFF77047FFFFFFFFFFFFFFF0E
:10060000FFFFFFFFFFFFFFFFFFFFFFFFFFFFFFFFFA
:10061000FFFFFFFFFFFFFFFFFFFF8F7774778FFF65
:10062000FFFFFFFFFFFF8F7477748FFF8F75777564
:100630008FFFFFFFFFFFFFFFFFFFFFFFFFFFFFFF3A
:10064000FFFFFFFF877F7CBF07FF877C7FBC07FF23
:10065000877D7FBD07FFFFFFFFFFFFFFFFFFFFFF5E
:10066000FFFFFFFFFFFFFFFF11241FBECFEFD8E00A
:10067000DEBFCDBF11E0A0E0B1E0E2E4FDE002C0EA
:1006800005900D92AA30B107D9F722E0AAE0B1E0B7
:1006900001C01D92A035B207E1F70E943B060C9401
:1006A0009F060C94000090E0FC01EE0FFF1FE80F86
:1006B000F91FEE0FFF1FE859FF4F70E0DB01A95E45
:1006C000BE4F635E7E4F84918D933196A617B70718
:1006D000D1F70895861780F450E0282F30E0D90133
:1006E000A85EBD4F295E3E4FF901E40FF51F9081D2
:1006F0009C938F5F8613F1CF08950F931F93CF9331
:100700008C01C62FFC018081805D0E94530366E04E
:100710006C0FF8018181805D0E9453036CE38AE3D2
:100720000E94530362E16C0FF8018281805D0E9498
:10073000530368E16C0FF8018381805D0E945303CD
:100740006EE48AE30E94530364E26C0FF801848133
:10075000805D0E9453036AE26C0FF8018581805D21
:100760000E945303CF911F910F9108952A98A82FAB
:10077000B0E0FD01E05CFD4FA05FBD4F682F70E071
:1007800088E0AB01208130E0982F27FF02C0289835
:1007900001C0289A299A2998220F331F9150A9F74E
:1007A0003897EA17FB0769F766E070E0F8E0E0E0E9
:1007B0009A012F5F3F4F0DC08217930711F42B9AB8
:1007C00001C02B982C9A2C980197B1F761507109B0
:1007D00019F08F2F9E2FF0CF2A9A089584EA8093E4
:1007E000BC00ECEBF0E080818823ECF70895809367
:1007F000BB0084E88093BC00ECEBF0E080818823B0
:10080000ECF7089584E88093BC00ECEBF0E0808185
:100810008823ECF78091BB000895CF93C82F0E94E6
:10082000EE0380ED0E94F7038C2F0E94F7030E94D5
:10083000EE0381ED0E94F7030E94020494E9909375
:10084000BC00CF9108950F931F93CF93DF93EC01DA
:1008500080E00E940D0408E412E0F801808381E04A
:100860000E940D04F801818382E00E940D04F801CA
:100870008283982F9F709983982F92959F7097707D
:1008800098838181982F9F709B8382958F7087704A
:100890008A838081982F9F709D8382958F70877047
:1008A0008C83DF91CF911F910F9108950F931F9328
:1008B000CF93DF938C0183E00E940D04C8E4D2E063
:1008C0008B8384E00E940D048C8385E00E940D04DC
:1008D0008D8386E00E940D048E838B81F8018083D6
:1008E0008C81982F9F70928382958F7087708183FF
:1008F0008D81982F9F70948382958F7087708383EA
:100900008E81982F9F70908782958F7087708783D4
:10091000DF91CF911F910F910895CF93DF93EB015A
:100920000E942304CE010E945604DF91CF910895C6
:1009300060E071E080E191E00E948D0460E380E17D
:1009400091E00E947D0340E360E380E00E946A033F
:100950000895669580FD6068862F08952F923F92D6
:100960005F926F927F928F929F92AF92BF92CF923F
:10097000DF92EF92FF920F931F93CF93DF9300D0FC
:10098000CDB7DEB780911702817C8E7F80931702EE
:100990008AE091E00E94230460E08AE091E00E94F6
:1009A0007D03EAE0F1E095818385981729F0809135
:1009B0001702816080931702EAE0F1E0948182855A
:1009C000981729F080911702826080931702EAE05D
:1009D000F1E093818185981729F080911702846056
:1009E00080931702EAE0F1E092818085981729F060
:1009F00080911702886080931702EAE0F1E091810C
:100A00008781981729F080911702806180931702DF
:100A1000EAE0F1E090818681981709F4B6C08091F0
:100A20001702806280931702B0C05090170250FEE8
:100A3000CDC00F2EF1E4AF2EF1E0BF2EF02D8701D7
:100A4000F8016081F50181915F010E94A904F8011C
:100A500081938F01F1E007371F0791F7B7C0F801C5
:100A60006081F50181915F010E94A904F8018193E1
:100A70008F01EE15FF0599F7B4C052FEB5C00F2ED9
:100A8000FFE2AF2EF1E0BF2EF02D83010F2EF5E631
:100A90008F2EF1E09F2EF02DF8016081F5018191FC
:100AA0005F010E94A904F80181938F01E815F905FF
:100AB00099F79AC053FE9BC00F2EF9E2AF2EF1E0DA
:100AC000BF2EF02D09E511E0F8016081F50181915B
:100AD0005F010E94A904F80181938F01E615F705D3
:100AE00099F785C054FE86C056010DE411E0F80167
:100AF0006081F50181915F010E94A904F801819351
:100B00008F01E215F30599F775C055FE15C00F2E3C
:100B1000F7E1AF2EF1E0BF2EF02D07E411E0F80170
:100B20006081F50181915F010E94A904F801819320
:100B30008F01AC14BD0499F7E7E1F1E0808186955F
:100B4000819321E0E734F207C9F740E360E380E0F6
:100B50000E946A038FE795EBE1E081509040E0400E
:100B6000E1F700C0000089819A8101979A83898307
:100B7000892B09F05ACF86E0EAE0F1E0A0E1B1E08C
:100B800001900D928A95E1F738C0809117028F731A
:100B900091F3E8E0F0E0FA83E9830F2EF1E7EF2E1E
:100BA000F1E0FF2EF02D0F2EFDE1CF2EF1E0DF2E34
:100BB000F02D0F2EF3E52F2EF1E03F2EF02D0F2E0E
:100BC000FFE56F2EF1E07F2EF02D2FCF51FE55CF98
:100BD0000F2EFBE3AF2EF1E0BF2EF02D0BE611E060
:100BE0003ECF52FC4CCF66CF53FC66CF7BCF54FC3C
:100BF0007BCF8BCF55FC8BCF9FCF0F900F90DF918A
:100C0000CF911F910F91FF90EF90DF90CF90BF9009
:100C1000AF909F908F907F906F905F903F902F90BC
:100C200008951092B9008CE08093B80084E080931E
:100C3000BC0008958FEF84B987B98BEF8AB95A9AAF
:100C4000E9E6F0E0808182608083E89A089584B5C7
:100C5000826084BD84B58E7F84BD85B5836085BD8B
:100C600085B5837F85BDEEE6F0E08081816080837D
:100C70008FEF87BD08950E941A060E942706789478
:100C80000E9411060E9498040E94AE042FE788E398
:100C900091E0215080409040E1F700C00000F4CF87
:100CA0001F920F920FB60F9211242F933F934F93E1
:100CB0005F936F937F938F939F93AF93BF93EF93C4
:100CC000FF9380911601883011F4109216018091E3
:100CD00016010E94B603809116018F5F8093160162
:100CE000FF91EF91BF91AF919F918F917F916F9104
:100CF0005F914F913F912F910F900FBE0F901F90DA
:100D000018951F920F920FB60F9211240F900FBEDD
:100D10000F901F9018951F920F920FB60F921124EB
:100D20008F9385B185FB882780F980FF2D9A80FD00
:100D30002D988F910F900FBE0F901F901895F894DB
:020D4000FFCFE3
:0A0D420000000000000200000000A5
:00000001FF
