:100000000C9434000C9451000C9451000C94510049
:100010000C9451000C9451000C9451000C9451001C
:100020000C9451000C9451000C9451000C9451000C
:100030000C9451000C9451000C9451000C945100FC
:100040000C9451000C9451000C9451000C945100EC
:100050000C9451000C9451000C9451000C945100DC
:100060000C9451000C94510011241FBECFEFD8E026
:10007000DEBFCDBF11E0A0E0B1E0EEEEF2E002C0E5
:1000800005900D92A037B107D9F721E0A0E7B1E0C4
:1000900001C01D92AE37B207E1F70E9434010C9403
:1000A00075010C9400002A9870E0782B80E177238A
:1000B00014F42B9A01C02B98660F771F2D9A9AE1A2
:1000C0009A95F1F700C02D98815089F72A9A0895E2
:1000D000CF93DF93C0E7D1E0688181E00E945300B5
:1000E000698182E00E9453006A8183E00E9453008C
:1000F0006B8184E00E9453006C8185E00E94530074
:100100006D8186E00E9453006E8187E00E9453005B
:100110006F8188E00E945300DF91CF910895CF92C4
:10012000DF92EF92FF920F931F93CF93DF93909103
:100130007A0180917801891748F143C04081329655
:10014000E901899199919E01D42F40E0C42F8C2B15
:100150009D2BAC01002E02C0569547950A94E2F7FC
:100160004D93AE15BF0551F790937D0180937C01AF
:100170000E9468000E9468000E9468000E94680057
:100180000F5F1F4F0930110549F461C000E010E016
:100190000F2EF8E7EF2EF1E0FF2EF02DE0917A011F
:1001A00060E1E69FF0011124E050FF4F20917801BB
:1001B00080E1289F9001112420503F4FA0E7B1E03B
:1001C000BDCF981738F143C040813296E90189913B
:1001D00099919E01142F00E0802B912BAC010C2CE7
:1001E00002C0569547950A94E2F74D93AE15BF05A8
:1001F00059F790937D0180937C010E9468000E94D2
:1002000068000E9468000E946800D1E0CD1AD10801
:1002100058F41DC06894CC24C3F8D12C0F2EF8E7F5
:10022000EF2EF1E0FF2EF02DE091780160E1E69FE6
:10023000F0011124E050FF4F20917A0180E1289FC6
:100240009001112420503F4FA0E7B1E0BDCF809135
:100250007A0180937801DF91CF911F910F91FF90E8
:10026000EF90DF90CF9008958FEF84B961E08CE03C
:100270000E94530060E089E00E94530067E08BE039
:100280000E94530061E08AE00E94530010927801BE
:10029000C6E080917A018F5F80937A019091780116
:1002A00089130E948F002FEF83ED90E3215080404F
:1002B0009040E1F700C00000C15059F7C6E08091BE
:1002C0007A01815080937A019091780189130E947C
:1002D0008F002FEF83ED90E3215080409040E1F7B5
:0E02E00000C00000C15059F7D3CFF894FFCFF3
:1002EE000000010021007F00FF000100010000005E
:1002FE00FF00FF00300018000C000600FF00FF009A
:10030E0000004300C7008D009900F100630000005B
:10031E0000004200C30091009100FF006E0000003B
:10032E0000001C003C006C00DF009F00000000007D
:10033E000000F200B100B100B100BF009E0000004D
:10034E0000007E00FF0099009900DF004E000000C3
:00000001FF
